:100000000C9434000C943E000C943E000C943E0082
:100010000C943E000C943E000C943E000C943E0068
:100020000C943E000C943E000C943E000C943E0058
:100030000C943E000C943E000C943E000C943E0048
:100040000C943E000C943E000C943E000C943E0038
:100050000C943E000C943E000C943E000C943E0028
:100060000C943E000C943E0011241FBECFEFD8E04C
:10007000DEBFCDBF0E9450000C9464000C940000C1
:100080009093C5008093C40088E18093C1000895D7
:10009000E0ECF0E0908195FFFDCF8093C6000895DD
:1000A0008FEF84B987B98AB983E390E00E9440005A
:1000B000C0ECD0E006EC10E088818823ECF7F80172
:0C00C00080810E944800F8CFF894FFCF28
:00000001FF
