:100000000C9434000C943E000C943E000C943E0082
:100010000C943E000C943E000C943E000C943E0068
:100020000C943E000C943E000C943E000C943E0058
:100030000C943E000C943E000C943E000C943E0048
:100040000C943E000C943E000C943E000C943E0038
:100050000C943E000C943E000C943E000C943E0028
:100060000C943E000C943E0011241FBECFEFD8E04C
:10007000DEBFCDBF0E945B000C94CE000C9400004C
:100080009093C5008093C40088E18093C1000895D7
:10009000E0ECF0E0908195FFFDCF8093C6000895DD
:1000A00083EA84BD83E085BD82E88093B00084E06C
:1000B0008093B1000895CF93DF93CDB7DEB7E39778
:1000C0000FB6F894DEBF0FBECDBF8FEF84B987B9EE
:1000D0008AB983E390E00E9440000E945000812C86
:1000E00000EC10E00F2EF6ECCF2ED12CF02D0F2EC1
:1000F000F3EB6F2E712CF02D0F2EFDE09F2EF02DC7
:10010000F82C01C0FB2CF80180818823E4F7F6016C
:10011000808189838981E2E0F0E0EC0FFD1FEF0D23
:10012000F11D80830E944800BB24B394BF0C8981D9
:100130008D3041F7F4E0FB1560F48B8187BD8C8135
:1001400088BD8D81F30180830F2EFDEFBF2EF02D32
:10015000BF0CEB2CF12CE2E0F0E0EC0FFD1FEE0DFC
:10016000FF1D90828A8183500E944800F5E0EF16BF
:10017000F10434F27E0186E0E80EF11CE2E0F0E0EA
:10018000EC0FFD1FEB0DF11D5F01F70181917F0168
:100190000E944800EA14FB04C1F7B2CFF894FFCFE5
:00000001FF
