:100000000C9434000C943E000C943E000C943E0082
:100010000C943E000C943E000C943E000C943E0068
:100020000C943E000C943E000C943E000C943E0058
:100030000C943E000C943E000C943E000C943E0048
:100040000C943E000C943E000C943E000C943E0038
:100050000C943E000C943E000C943E000C943E0028
:100060000C943E000C943E0011241FBECFEFD8E04C
:10007000DEBFCDBF0E9460000C94BC000C94000059
:100080009093C5008093C40088E18093C1000895D7
:10009000E0ECF0E0908195FFFDCF8093C6000895DD
:1000A00083EA84BD83E085BD83E28093B00084E071
:1000B0008093B1008FEF87BD88BD8093B400089511
:1000C000CF93DF93CDB7DEB7E3970FB6F894DEBFDB
:1000D0000FBECDBF8FEF84B987B98AB983E390E0B3
:1000E0000E9440000E94500000EC10E00F2EF6EC41
:1000F000CF2ED12CF02D0F2EF4EBAF2EB12CF02DF6
:10010000F12CF80180818823E4F7F601808189834E
:100110008981E2E0F0E0EC0FFD1FEF0DF11D80831F
:1001200099819F3721F40E944800FA9401C0F3940A
:1001300089818D3031F78B81809587BD8C81809549
:1001400088BD8D818095F50180838A8183500E94CE
:1001500048008E818D30A1F26894FF24F2F80E944D
:100160004800F394E2E0F0E0EC0FFD1FEF0DF11D0D
:0C01700080818D30A1F7C4CFF894FFCF40
:00000001FF
