:100000000C9434000C943E000C943E000C943E0082
:100010000C943E000C943E000C943E000C943E0068
:100020000C943E000C943E000C943E000C943E0058
:100030000C943E000C943E000C943E000C943E0048
:100040000C943E000C943E000C943E000C943E0038
:100050000C943E000C943E000C943E000C943E0028
:100060000C943E000C943E0011241FBECFEFD8E04C
:10007000DEBFCDBF0E946A000C94BB000C94000050
:100080009093C5008093C40088E98093C1000895CF
:10009000E0ECF0E0908195FFFDCF8093C6000895DD
:1000A00083EA84BD83E085BD83E28093B00084E071
:1000B0008093B1008FEF87BD88BD8093B400089511
:1000C0001F920F920FB60F9211240F900FBE0F9038
:1000D0001F901895CF93DF93CDB7DEB7E3970FB698
:1000E000F894DEBF0FBECDBF8FEF84B987B98AB950
:1000F00083E390E00E9440000E9450000F2EF6EC37
:10010000EF2EF12CF02D04EB10E0198280E07894B2
:100110008895F701908199839981E2E0F0E0EC0FF6
:10012000FD1FE80FF11D90838F5F99819D3079F756
:10013000853058F38B81809587BD8C81809588BDF3
:100140008D818095F80180838A8183500E944800C8
:100150008E818D30D1F26894DD24D2F80E9448005F
:10016000D394E2E0F0E0EC0FFD1FED0DF11D808176
:0A0170008D30A1F7CACFF894FFCF3D
:00000001FF
